:100000000C9447050C946F050C946F050C946F05C8
:100010000C946F050C946F050C946F050C946F0590
:100020000C946F050C946F050C946F050C946F0580
:100030000C946F050C946F050C946F050C946F0570
:100040000C94801B0C946F050C946F050C946F0539
:100050000C946F050C946F050C946F050C946F0550
:100060000C94CA1B0C946F05000103070F1F3F7F00
:100070000080C0E0F0F8FCFE00000000003E5B4F96
:100080005B3E3E6B4F6B3E1C3E7C3E1C183C7E3CF8
:10009000181C577D571C1C5E7F5E1C00183C180006
:1000A000FFE7C3E7FF0018241800FFE7DBE7FF3096
:1000B000483A060E2629792926407F050507407F04
:1000C00005253F5A3CE73C5A7F3E1C1C08081C1C77
:1000D0003E7F14227F22145F5F005F5F06097F016D
:1000E0007F006689956A606060606094A2FFA29458
:1000F00008047E040810207E201008082A1C080826
:100100001C2A08081E101010100C1E0C1E0C303873
:100110003E3830060E3E0E06000000000000005F74
:1001200000000007000700147F147F14242A7F2A90
:100130001223130864623649562050000807030052
:10014000001C2241000041221C002A1C7F1C2A089E
:10015000083E080800807030000808080808000001
:1001600060600020100804023E5149453E00427F75
:10017000400072494949462141494D331814127FC4
:100180001027454545393C4A494931412111090764
:100190003649494936464949291E000014000000E5
:1001A00040340000000814224114141414140041B7
:1001B00022140802015909063E415D594E7C121174
:1001C000127C7F494949363E414141227F414141AC
:1001D0003E7F494949417F090909013E4141517327
:1001E0007F0808087F00417F41002040413F017F98
:1001F000081422417F404040407F021C027F7F0460
:1002000008107F3E4141413E7F090909063E4151A8
:10021000215E7F09192946264949493203017F0198
:10022000033F4040403F1F2040201F3F4038403F99
:10023000631408146303047804036159494D4300AF
:100240007F4141410204081020004141417F0402E6
:10025000010204404040404000030708002054547D
:1002600078407F284444383844444428384444285B
:100270007F385454541800087E090218A4A49C78AE
:100280007F0804047800447D40002040403D007F0A
:100290001028440000417F40007C047804787C08EA
:1002A0000404783844444438FC18242418182424BE
:1002B00018FC7C08040408485454542404043F44A3
:1002C000243C4040207C1C2040201C3C4030403CD2
:1002D00044281028444C9090907C4464544C440032
:1002E0000836410000007700000041360800020196
:1002F0000204023C2623263C1EA1A161123A404082
:10030000207A3854545559215555794122545478FE
:1003100042215554784020545579400C1E52721297
:100320003955555559395454545939555454580020
:1003300000457C410002457D420001457C407D1224
:1003400011127DF0282528F07C5455450020545486
:100350007C547C0A097F4932494949323A44444431
:100360003A324A4848303A4141217A3A424020786C
:10037000009DA0A07D3D4242423D3D4040403D3C6D
:1003800024FF2424487E4943662B2FFC2F2BFF0992
:1003900029F620C0887E0903205454794100004486
:1003A0007D413048484A32384040227A007A0A0A71
:1003B000727D0D19317D2629292F282629292926E4
:1003C00030484D4020380808080808080808382F29
:1003D00010C8ACBA2F102834FA00007B00000814B3
:1003E0002A142222142A14085500550055AA55AA89
:1003F00055AAFF55FF55FF000000FF00101010FF29
:1004000000141414FF001010FF00FF1010F010F083
:10041000141414FC001414F700FF0000FF00FF1474
:1004200014F404FC141417101F10101F101F1414C0
:10043000141F00101010F0000000001F101010100A
:100440001F10101010F010000000FF1010101010FE
:1004500010101010FF10000000FF140000FF00FF3C
:1004600000001F10170000FC04F4141417101714D8
:1004700014F404F40000FF00F714141414141414FA
:10048000F700F7141414171410101F101F1414146D
:10049000F4141010F010F000001F101F0000001FD7
:1004A00014000000FC140000F010F01010FF10FF0A
:1004B000141414FF141010101F00000000F010FF9F
:1004C000FFFFFFFFF0F0F0F0F0FFFFFF0000000083
:1004D00000FFFF0F0F0F0F0F3844443844FC4A4A07
:1004E0004A347E02020606027E027E0263554941BC
:1004F000633844443C04407E201E2006027E0202F3
:1005000099A5E7A5991C2A492A1C4C7201724C3006
:100510004A4D4D303048784830BC625A463D3E49DD
:100520004949007E0101017E2A2A2A2A2A44445F81
:10053000444440514A444040444A51400000FF0175
:1005400003E080FF000008086B6B08361236243683
:10055000060F090F060000181800000010100030E8
:1005600040FF0101001F01011E00191D1712003C70
:100570003C3C3C0000000000DB40A4A62EAF200065
:10058000A1C8D300408DAED580A800006000000057
:100590000000000000000000000000E0000000007B
:1005A00000000000000000000001E000000000006A
:1005B000000000000000000001F00000000000004A
:1005C0000000000000000003F00000000000000038
:1005D00000000000000007F0000000000000000024
:1005E000000000000007F80000000000000000000C
:1005F000000000000FF800000003C0007E000001B2
:10060000E0007F0FF800000003C000FE000001E0E2
:1006100000FFEFF800000003C000FE000001E00052
:10062000FFFFF800000003C000F00000000F007F93
:10063000FE7FC0000003C000F00000000F003FFE7E
:100640007FF83FF1FBCFFCFEF3BC3DEFE01FFE7FE8
:10065000FF7FFBFFDFFEFEFFBC3DEFE01FC6FFFF9D
:100660007FFBFFDFFEFEFFBC3DEFE00FE3C7FE7840
:100670007BC3DE1EF0FFBC3DEF0007FF87FC787BED
:10068000C3DE1EF0F83C3DEF0001FFFFF0007BC32E
:10069000C01EF0F03C3DEF0001F37FE03FFBC3CF15
:1006A000FEF0F03C3DEF0003E33F807FFBC3DFFE45
:1006B000F0F03C3DEF0007E73C00787BC3DE1EF026
:1006C000F03C3DEF0007FFBE00787BC3DE1EF0F07C
:1006D0003C3DEF0007FFFE00787BC3DE1EF0F03CE0
:1006E0003DEF000FFFFE007FFBFFDFFEF0F03FFD60
:1006F000EFE00FFFFF007FFBFFDFFEF0F03FFDEFBD
:10070000E00FF9FF003E79F9CF9EF0F01F3DE7E0E2
:100710001FF1FF0000000000000000000000001FAB
:1007200080FF007FFFFFFFFFFFFFFFFFFFE01C00D8
:100730007F007FFFFFFFFEB46D888D18E000001F73
:10074000007FFFFFFFFE95AD7DB577E000000F0055
:100750007FFFFFFFFEA5AD9D8D19E0000006007F25
:10076000FFFFFFFEB5ADEDB57EE00000000000012B
:100770008000000000000000000003800000000076
:10078000000000000007C0000000000000000000A2
:1007900007C00000000000000000000FC0000000C3
:1007A0000000000000001FE000000000000000004A
:1007B000001FE00000000000000000003FE000001B
:1007C000000000000000003FF000000000000000FA
:1007D00000007FF0000000000000001FF87FF00024
:1007E0000000000000003FFE7FF00000000000005D
:1007F000003FFF7FF0000000000000001FFFFBE053
:10080000000000000000000FFFF9FFC00000000022
:1008100000000FFFF9FFF800000000000007FFF1E3
:10082000FFFF00000000000003FC73FFFF800000DA
:1008300000000001FE3FFFFF80000000000000FFFD
:100840001E0FFF000000000000007FFE1FFC0000E4
:1008500000000000003FFFFFF80000000000000063
:100860000FDFFFE0000000000000001F19FFC000C4
:100870000000000000003F3CFF00000000000000FE
:10088000007E7CF800000000000000007FFE7C007D
:1008900000000000000000FFFFFC0000000000005E
:1008A0000000FFFFFE0000000000000000FFFFFE50
:1008B0000000000000000001FFEFFE00000000004B
:1008C000000001FFCFFE0000000000000003FF0752
:1008D000FE0000000000000003FC07FE0000000016
:1008E00000000003F003FE00000000000000018093
:1008F00000FE000000000000000000007E0000007C
:10090000000000000000003E0000000000000000A9
:1009100000000C000000000000078000FC00000345
:10092000C0000000078001FC000003C000000007B9
:100930008001FC000003C0000000078001E000000F
:10094000001E000000078001E00000001E007FE3A1
:10095000F79FF9FDE7787BDFC0FFF7FFBFFDFDFFE5
:10096000787BDFC0FFF7FFBFFDFDFF787BDFC0F0C6
:10097000F787BC3DE1FF787BDE00F0F787BC3DE107
:10098000F0787BDE0000F787803DE1E0787BDE00D9
:100990007FF7879FFDE1E0787BDE00FFF787BFFDF3
:1009A000E1E0787BDE00F0F787BC3DE1E0787BDEBC
:1009B00000F0F787BC3DE1E0787BDE00F0F787BC14
:1009C0003DE1E0787BDE00FFF7FFBFFDE1E07FFB6C
:1009D000DFC0FFF7FFBFFDE1E07FFBDFC07CF3F38B
:1009E0009F3DE1E03E7BCFC0000000000000000022
:1009F000000000FFFFFFFFFFFFFFFFFFFFC0FFFF43
:100A0000FFFFFD68DB111A31C0FFFFFFFFFD2B5A0E
:100A1000FB6AEFC0FFFFFFFFFD4B5B3B1A33C0FFDC
:100A2000FFFFFFFD6B5BDB6AFDC0000000002400E0
:100A300027002A0000000000250028002B000000ED
:100A40000000230026002900040404040404040414
:100A50000202020202020303030303030102040869
:100A60001020408001020408102001020408102018
:100A7000000000080002010000030407000000005D
:100A8000000000002200FF210000E91C6720112463
:100A90001FBECFEFD8E0DEBFCDBF13E0A0E0B1E0D6
:100AA000E4E9F6E402C005900D92A632B107D9F749
:100AB00024E0A6E2B3E001C01D92A237B207E1F73D
:100AC00015E0C6E4D5E004C02197FE010E9406228D
:100AD000C534D107C9F70E944A1D0C943D230C94DC
:100AE00000008530910514F090E080E020E034E0D3
:100AF00045E0880F991F4A95E1F788569E4FF90106
:100B000050E040E0DC01A40FB51F6C9161934F5F92
:100B10005F4F48305105B1F7285F3F4F089644E0DA
:100B20002032340761F781E008950895833081F021
:100B300028F4813099F08230A9F008958730A9F027
:100B40008830C9F08430B1F4809180008F7D03C07B
:100B5000809180008F7780938000089584B58F778F
:100B600084BD089584B58F7DFBCF8091B0008F77D1
:100B70008093B00008958091B0008F7DF9CFCF931E
:100B8000DF93282F30E0F901E059F54F8491F90106
:100B9000E45AF54FD491F901E85BF54FC491CC23A9
:100BA000A1F081110E949605EC2FF0E0EE0FFF1FDF
:100BB000E25CF54FA591B491EC91ED2381E090E0DA
:100BC00009F480E0DF91CF91089580E090E0FACFC2
:100BD0001F93CF93DF93282F30E0F901E059F54FB1
:100BE0008491F901E45AF54FD491F901E85BF54F8E
:100BF000C491CC23A9F0162F81110E949605EC2FE9
:100C0000F0E0EE0FFF1FEC5CF54FA591B4918FB7AC
:100C1000F894EC91111108C0D095DE23DC938FBFBE
:100C2000DF91CF911F910895DE2BF8CFCF93DF9303
:100C300090E0FC01E45AF54F2491885B954FFC014C
:100C400084918823C9F090E0880F991FFC01E65D2C
:100C5000F54FA591B491FC01EC5CF54FC591D49191
:100C600061110DC09FB7F8948C91209582238C93CD
:100C70008881282328839FBFDF91CF910895623018
:100C800051F49FB7F8943C91822F809583238C93E5
:100C9000E8812E2BEFCF8FB7F894EC912E2B2C936D
:100CA0008FBFEACF8E50806480937C0080917A0061
:100CB000806480937A0080917A0086FDFCCF8091D9
:100CC00078009091790008953FB7F8948091F803E7
:100CD0009091F903A091FA03B091FB0326B5A89B6C
:100CE00005C02F3F19F00196A11DB11D3FBFBA2FBE
:100CF000A92F982F8827BC01CD01620F711D811D7E
:100D0000911D42E0660F771F881F991F4A95D1F702
:100D100008958F929F92AF92BF92CF92DF92EF92FF
:100D2000FF924B015C010E9464066B017C010E94F2
:100D300064066C197D098E099F09683E7340810520
:100D40009105A8F321E0821A9108A108B10888EE64
:100D5000C80E83E0D81EE11CF11C81149104A1048B
:100D6000B10429F7FF90EF90DF90CF90BF90AF9044
:100D70009F908F90089508950895AF92BF92CF925B
:100D8000DF92EF92FF920F931F93CF93DF936C014B
:100D90007B018B01040F151FEB015E01AE18BF082C
:100DA000C017D10759F06991D601ED91FC910190DE
:100DB000F081E02DC6010995892B79F7C501DF91F6
:100DC000CF911F910F91FF90EF90DF90CF90BF9048
:100DD000AF90089520919A03260F3327331F2132B5
:100DE0003105ECF42091BE03FC0190E080E024305A
:100DF00069F082E00895A0919A032191AC014658D0
:100E00005C4FA40FB52FB11D2C930196861798F354
:100E100080919A03680F60939A0380E0089581E0BF
:100E200008951092BE0381E08093C0031092BF0327
:100E300061E082E10E94E80561E083E10E94E8054B
:100E4000E9EBF0E080818E7F808380818D7F8083DD
:100E500088E48093B80085E48093BC000895CF9324
:100E6000DF9391E0909379038823B9F0C091B800A3
:100E7000D091BA008091BC008A7B8093BC0060E076
:100E800082E10E94E80560E083E10E94E8050E949B
:100E90001107D093BA00C093B800DF91CF910895A5
:100EA000E091EA038091E903E81730F4F0E0EC5AAE
:100EB000FC4F808190E008958FEF9FEF089590910F
:100EC000EA038091E9032FEF3FEF981748F4E92FE9
:100ED000F0E0EC5AFC4F208130E09F5F9093EA03F2
:100EE000C90108958091E9039091EA03891B990B48
:100EF0000895CF92DF92EF92FF920F931F93CF93BB
:100F0000DF937C01CB018A012091FF03222389F02A
:100F1000EB016B01C40ED51ECC15DD0569F069919E
:100F2000D701ED91FC910190F081E02DC701099569
:100F3000F3CF642F0E94EA06C801DF91CF911F9181
:100F40000F91FF90EF90DF90CF900895CF93DF93B4
:100F50001F92CDB7DEB769832091FF032223F9F0FA
:100F60002091FC03203258F021E030E0FC01338373
:100F7000228390E080E00F90DF91CF9108958091DF
:100F8000FD03E82FF0E0EC5CFC4F998190838F5FCC
:100F90008093FD038093FC0381E090E0ECCF61E05F
:100FA000CE0101960E94EA06F7CFCF92DF92EF9230
:100FB000FF920F931F93CF93DF93D091FC0381E0B7
:100FC000D13208F09CC0C091FE030E9464066B0100
:100FD0007C018091BE0381116CC082E08093BE03CE
:100FE00081E08093C0038FEF8093BD031092E203F2
:100FF000D093E103A4E3B3E0E1ECF3E080E0D813A5
:101000008DC01092E3038091E303CC0FC82BC093F3
:10101000E3038091BF03813009F084C01092BF03C5
:101020000E9464066B017C018091E3038093BB0006
:101030008091750390917603A0917703B091780326
:10104000892B8A2B8B2BA1F00E94640600917503DB
:101050001091760320917703309178036C197D0904
:101060008E099F09061717072807390708F442C099
:101070008091BC0083FDD8CF85EC8093BC000E949A
:1010800064066B017C018091BE03823009F44CC080
:101090008091BD038F3F09F469C08091BD03803208
:1010A00009F466C08091BD03803309F463C084E015
:1010B00026C08091750390917603A0917703B0913B
:1010C0007803892B8A2B8B2B09F483CF0E9464062B
:1010D0000091750310917603209177033091780386
:1010E0006C197D098E099F0906171707280739070C
:1010F00008F06FCF809174030E942F0785E0109253
:10110000FD031092FC031092FF03DF91CF911F911A
:101110000F91FF90EF90DF90CF9008959D91919364
:101120008F5F6DCF85EEA9CF809175039091760387
:10113000A0917703B0917803892B8A2B8B2B09F42C
:10114000A2CF0E946406009175031091760320914E
:101150007703309178036C197D098E099F09061772
:1011600017072807390708F08ECFC4CF80E0C7CF14
:1011700082E0C5CF83E0C3CF0895FC016370668B26
:101180008481958126813781613039F0633029F07F
:1011900091878087338722870895318720879387B7
:1011A000828708952F923F924F925F926F927F9223
:1011B0008F929F92AF92BF92CF92DF92EF92FF9267
:1011C0000F931F93CF93DF93CDB7DEB76A970FB618
:1011D000F894DEBF0FBECDBF9A8F898F7A83698363
:1011E0004A01D22E18870F833701BC2CDC01599697
:1011F0002D913C915A972115310509F015C118968A
:101200008D919C911997681779070CF0D7C11A96A0
:101210008D919C91481759070CF0D0C14C2C512C42
:10122000B6E0CB9E600D711D11247C876B8716166E
:1012300017060CF0C3C1EA2DF0E0FA87E98793E0C6
:10124000EE0FFF1F9A95E1F7F88BEF87CF01840F20
:10125000951F181619060CF0B1C1A98DBA8D5896B4
:101260008C91811104C0BFEABD1508F4D394A98DF7
:10127000BA8DED91FC9111970284F385E02DCD019B
:101280000995B5E0DB9EC0011124E981FA81FC8358
:10129000EB83312C212C9C0128583F4F388F2F8B0A
:1012A0004A2D50E05E8B4D8BEF89F88DE20DF31DDA
:1012B00044919E828D82D12CC12C69817A81620DEC
:1012C000731D7A8B698B842F90E09C8B8B8BE98DBF
:1012D000FA8DA081B18140FF82C0F1E0BF126FC0E2
:1012E000AF126DC01C96ED91FC912F813885A40141
:1012F0004C0D5D1D69897A89898D9A8D0995EB89D7
:10130000FC89F595E7954E2F5FEFC51AD50A6D81DB
:101310007E818D899E89680F791F7E836D8398E019
:10132000C916D10481F6AFEF2A1A3A0AEB81FC8183
:10133000E40DF51DFC83EB83F5E02F16310409F075
:10134000B3CF2F81388526153705B9F0A98DBA8D11
:10135000ED91FC91B1E0BB1257C0AB1255C0698151
:101360007A816B5F7F4F0088F189E02D830128E04F
:1013700030E0A401898D9A8D0995A98DBA8DED91E2
:10138000FC9111970688F789E02DCD016A960FB67A
:10139000F894DEBF0FBECDBFDF91CF911F910F91AB
:1013A000FF90EF90DF90CF90BF90AF909F908F9085
:1013B0007F906F905F904F903F902F9009941E9672
:1013C000ED91FC91EF80F88409851A8592014D8199
:1013D0005E816B817C81898D9A8D099590CF2F815B
:1013E00038852615370509F48ACF31E0B31207C0D6
:1013F000A31205C01C96ED91FC91930178CF1E9627
:10140000ED91FC917301E0CF6B857C8564197509C2
:101410000684F785E02D73010F8518899201A401D8
:10142000898D9A8D0995A9CFF901349694913297B7
:1014300045915491D91AB7E0DB9E400D511D1124FE
:10144000F901259134913C8B2B8BFA012590349036
:10145000FA013296749031963491398B32966490B9
:101460003196449041E04C1518F04A1508F07FC0C1
:10147000662D062C000C770B7C836B83842D042C4B
:10148000000C990B9E838D83A98DBA8DED91FC91F3
:1014900011970284F385E02DCD010995512CD12CB3
:1014A000C12CEA2DF0E0FA87E9872B2D30E03C874C
:1014B0002B87A401440D511D47FC5A95588F4F8B23
:1014C00069817A81660D711D67FC7A957E876D87CB
:1014D0007989C71608F051CF2C2D30E04D815E81FF
:1014E000420F531FA985BA854A9FC0014B9F900D9B
:1014F0005A9F900D1124FC01E80DF91DF88BEF8720
:10150000852D612C4F89588D420F531F5E8B4D8B5B
:10151000671408F050C044244394480E877041F487
:10152000C1010196EB89FC89E20DF31DD4901C01E9
:10153000D7FE19C0A98DBA8DED91FC91662D70E092
:10154000B1E0BB1219C0AB1217C02D853E85620FEA
:10155000731F0484F585E02D2F8138854D895E89C0
:10156000898D9A8D0995DD0C6394842DD1CF1E82CF
:101570001D821C821B8288CF4B815C81640F751F8A
:10158000AB85BC856A9FC0016B9F900D7A9F900DC3
:10159000112469817A81680F791F0684F785E02D0F
:1015A000EF80F88409851A859D014F855889898DBA
:1015B0009A8D0995D8CF570CC3948ACF6A960FB6E7
:1015C000F894DEBF0FBECDBFDF91CF911F910F9179
:1015D000FF90EF90DF90CF90BF90AF909F908F9053
:1015E0007F906F905F904F903F902F9008958F92D3
:1015F0009F92AF92CF92EF92FF920F931F93CF9350
:10160000DF93EC01262F898D9A8D009709F051C048
:101610006A30D1F41D861C868D8948E0849F900134
:1016200011248E859F85820F931F9F878E8781E06F
:1016300090E0DF91CF911F910F91FF90EF90CF90AD
:10164000AF909F908F9008956D3089F3CC88AD88CE
:101650008F898823C1F08C859D8536E0C39E800DDF
:10166000911D1124488559854817590764F44E8502
:101670005F851D861C8638E0A39EC0011124840F5F
:10168000951F9F878E87EA88FB88088919894E8570
:101690005F856C857D85CE010E94D2082C898C8562
:1016A0009D8546E0249F800D911D11249D878C8788
:1016B000BECF6A3069F41D861C86FC013896E49121
:1016C0002D898E859F85E29F800D911D1124ADCFC0
:1016D0006D3009F4ACCFFC0134963491631708F4F3
:1016E000A6CF3296E491E61708F4A1CFFC0132961A
:1016F00085909490462F431B342F47E0349F800CF5
:10170000911C1124F401329634913196E4913323E3
:10171000A9F1EE2399F1CC88F4013596E491AD88D6
:101720004F89442301F10E2E000CFF0BE30FF11D36
:10173000CE9EA001CF9E500D11246C857D85460F55
:10174000571F68857985641775076CF44E855F852A
:101750001D861C86FC013896E491AE9E400D511DFD
:1017600011245F874E87EA88FB88088919894E858E
:101770005F856C857D85CE010E94D208F401349688
:10178000E4912C898C859D85E29F800D911D11240B
:101790008DCF6F927F928F929F92AF92BF92CF9296
:1017A000DF92EF92FF920F931F93CF93DF93EC01A1
:1017B0006B015A0139014801E881F9810284F385FE
:1017C000E02D0995E881F9810288F389E02D8701F0
:1017D0009301A501B601CE010995A501480D591D3A
:1017E00041505109E881F9810288F389E02D930184
:1017F000B601CE010995E881F9810088F189E02DD3
:101800009401A501B601CE010995C60CD71CB601FD
:1018100061507109E881F9810088F189E02D940116
:10182000A501CE010995E881F9810688F789E02DA7
:10183000CE01DF91CF911F910F91FF90EF90DF903C
:10184000CF90BF90AF909F908F907F906F900994B2
:101850006F927F928F929F92AF92BF92CF92DF92C0
:10186000EF92FF920F931F93CF93DF935C01EB01F5
:101870006A01490138018701DC01ED91FC91621791
:10188000730719F5641675062CF0962D872D3A010D
:10189000C92ED82E9601261937092F5F3F4F048C89
:1018A000F58DE02DA301BE01C5010995DF91CF9112
:1018B0001F910F91FF90EF90DF90CF90BF90AF906E
:1018C0009F908F907F906F9008954615570591F4E3
:1018D0002617370724F0892D4B01C22FD82F9E01E0
:1018E000281939092F5F3F4F068CF78DE02DA6018F
:1018F000B401DACF0284F385E02D0995D501ED918D
:10190000FC910488F589E02D83019401A601BE01B4
:10191000C5010995D501ED91FC910688F789E02D67
:10192000C501DF91CF911F910F91FF90EF90DF9054
:10193000CF90BF90AF909F908F907F906F900994C1
:10194000EF92FF920F931F93DC011A960D911C9159
:101950001B9718962D913C911997ED91FC9100A041
:10196000F1A1E02D7B0150E040E070E060E00995DE
:101970001F910F91FF90EF9008954F925F926F9299
:101980007F928F929F92AF92BF92CF92DF92EF920F
:10199000FF920F931F93CF93DF936C012B015A019A
:1019A00039014801DC01ED91FC910284F385E02DC1
:1019B0000995E201640C751CD601ED91FC91C615E8
:1019C000D7055CF40088F189E02D87019401A50119
:1019D000BE01C60109952196EFCF0688F789E02D53
:1019E000C601DF91CF911F910F91FF90EF90DF9093
:1019F000CF90BF90AF909F908F907F906F905F90AF
:101A00004F9009948F929F92AF92BF92CF92DF92A4
:101A1000EF92FF920F931F93CF93DF93EC015B0143
:101A20004A016901E881F9810284F385E02D099575
:101A300095012C0D3D1D21503109E881F981048863
:101A4000F589E02D78018401A401B501CE01099545
:101A5000E881F9810688F789E02DCE01DF91CF91E9
:101A60001F910F91FF90EF90DF90CF90BF90AF90BC
:101A70009F908F9009948F929F92AF92BF92CF9236
:101A8000DF92EF92FF920F931F93CF93DF93EC01BE
:101A90005B014A0169017801E881F9810284F385DB
:101AA000E02D0995C80CD91C860101501109E88167
:101AB000F9810488F589E02D9501A401B501CE01D5
:101AC0000995E881F9810688F789E02DCE01DF913B
:101AD000CF911F910F91FF90EF90DF90CF90BF902B
:101AE000AF909F908F900994EF92FF920F931F9366
:101AF000DC01ED91FC9100A0F1A1E02D09951F9171
:101B00000F91FF90EF9008950F931F93DC01ED91DB
:101B1000FC91068CF78DE02D09951F910F9108958A
:101B20000F931F93DC01ED91FC91048CF58DE02D5A
:101B300009951F910F9108952F923F924F925F92B6
:101B40006F927F928F929F92AF92BF92CF92DF92CD
:101B5000EF92FF920F931F93CF93DF9300D000D0AB
:101B600000D0CDB7DEB76C017C836B835E834D8381
:101B70009A01220F331F2F5F3F4FAB018D819E8152
:101B8000481B590B01E010E0B6018EE294E00E9480
:101B9000900D81E090E03C012D813E81621A730A34
:101BA000C9019195819591099C01220F331F3A83B8
:101BB00029834D805E8022242394312CF12CE12C4A
:101BC00077FC0DC02D813E81215031093E832D834C
:101BD00089819A8102969A838983680E791E9FEF84
:101BE000E91AF90A22E0220E311C620C731C8D8165
:101BF0009E818E159F050CF467C04C01880C991CC2
:101C00009FEF891A990A01E010E09401AB80BC8033
:101C10008D819E81A81AB90AA501B6016E0D7F1D9E
:101C20008EE294E00E94900D9401A501B6016E1918
:101C30007F098EE294E00E94900D2D813E81241553
:101C4000350519F1AA24A394B12CAE18BF088B81D5
:101C50009C81A80EB91EB601640D751D01E010E04F
:101C6000410192E0891A91089401A5018EE294E065
:101C70000E94900DB601641975099401A5018EE2C8
:101C800094E00E94900D4D805E808D819E81E816CB
:101C9000F9060CF495CF26960FB6F894DEBF0FBE6A
:101CA000CDBFDF91CF911F910F91FF90EF90DF900B
:101CB000CF90BF90AF909F908F907F906F905F90EC
:101CC0004F903F902F9008952D813E81241535052A
:101CD00009F0B8CFE0CFDC01ED91FC910084F185F3
:101CE000E02D09943F924F925F926F927F928F9274
:101CF0009F92AF92BF92CF92DF92EF92FF920F939B
:101D00001F93CF93DF935C017B014A016901390185
:101D100087E0680E711C93E0759467949A95E1F7DB
:101D20002B01400E511E10E000E0312CD0E0C0E04D
:101D3000CE0187709927330C892B59F4FE0183E07B
:101D4000F595E7958A95E1F7E00FF11FE80DF91D8C
:101D5000349037FE0AC021E030E0A701B5016C0FD6
:101D60007D1F8EE294E00E946B0E2196CC16DD065C
:101D7000F9F68FEFE81AF80A060D171DE414F504BA
:101D8000A9F6DF91CF911F910F91FF90EF90DF9017
:101D9000CF90BF90AF909F908F907F906F905F900B
:101DA0004F903F9008952F923F924F925F926F9283
:101DB0007F928F929F92AF92BF92CF92DF92EF92DB
:101DC000FF920F931F93CF93DF9300D000D000D0EA
:101DD000CDB7DEB73C016A013E832D83FC82EB82E6
:101DE0005801A41AB50AB7FE03C0B194A194B10872
:101DF0008D809E80861A970A97FE03C091948194E5
:101E000091088A149B045CF0902F812F0D811E8114
:101E10009D838E839C2D8D2D6B01692F782F0C1542
:101E20001D055CF09D818E817E836D83692F782FE7
:101E3000902F812F8601C92ED82E1601201A310A23
:101E40002B012D813E81421A530A57FE03C0519443
:101E500041945108710137FE03C03FEFE31AF30AC2
:101E6000F594E7948D819E81861797075CF5A1E034
:101E7000B0E0BA83A983C016D1064CF1D301ED912D
:101E8000FC910484F585E02D2B813C81A8016D81B6
:101E90007E818A149B041CF04D815E81B801C301D0
:101EA0000995E418F508F7FE0AC02D813E81898165
:101EB0009A81280F391F3E832D83E20CF31C0F5F9C
:101EC0001F4FD9CF2FEF3FEF3A832983D4CF2696E8
:101ED0000FB6F894DEBF0FBECDBFDF91CF911F913B
:101EE0000F91FF90EF90DF90CF90BF90AF909F90B9
:101EF0008F907F906F905F904F903F902F900895BC
:101F0000EF92FF920F931F93CF93DF93EC01EC803E
:101F1000FD806E157F050CF070C057FF04C0240FC4
:101F2000351F50E040E08E819F81FA01E20FF31FE0
:101F30008E179F071CF49C01241B350B12161306E9
:101F40000CF05BC0922F842F8695869586958E9D8A
:101F5000D0018F9DB00D11246A0F7B1FAF8DB8A1EA
:101F6000A60FB71F477049F188E0841B482F682FE0
:101F700070E0FB01E059FF4FE491281708F063C0BF
:101F8000621B71092FEF30E002C0359527956A95E5
:101F9000E2F7E2230130110539F0B0F1023011050A
:101FA00061F58C91E82702C08C91E82BEC93941793
:101FB00020F12C813D81A20FB31FE92FE41BE830F3
:101FC00078F00230110521F58E2F9C9190959C930D
:101FD0002C813D81A20FB31F88508830B0F7E77085
:101FE000EE2359F0F0E0E859FF4FE491013011057C
:101FF000F9F010F10230110519F1DF91CF911F9125
:102000000F91FF90EF900895E0958C91E823CECF4B
:1020100081E00115110509F480E081959E2F8C93D4
:102020002C813D81A20FB31F98509830C0F7D7CFB5
:102030008C91E82BEC93E1CFE0958C91E823FACFDB
:102040008C91E827F7CF0130110509F4ADCFE0F20C
:102050000230110509F4A5CFAE0DBF1DAECF0F9311
:102060001F93CF93DF9377FF04C0260F371F70E0D5
:1020700060E0DC011496CD91DC91FB01E20FF31FCF
:10208000CE17DF071CF49E01261B370B1216130612
:102090004CF5FA0157FD3796A3E0F595E795AA951B
:1020A000E1F7EC9FD001ED9FB00DFC9FB00D112426
:1020B0006A0F7B1FDC015F96ED91FC91E60FF71F25
:1020C0004770552781E090E001C0880F4A95EAF7F4
:1020D000482F0130110559F0A8F02E0F3F1F023094
:1020E0001105E1F0DF91CF911F910F9108952E0F0F
:1020F0003F1FE217F307B1F38191DF011197842BA2
:102100008C93F7CF80952E0F3F1FE217F30751F303
:102110009191DF01119798239C93F7CFE217F30772
:1021200009F38191DF01119784278C93F7CF0F93E7
:102130001F93FA01DC0156964C9156974230E9F014
:102140004330A1F1413061F514964D915C91DA0173
:10215000AE1BBF0BFD01E21BF30B77FD0BC0DC01D7
:1021600016964D915C916417750724F4AB01BF017D
:102170000E942F101F910F91089514964D915C911C
:10218000DA01A61BB70BBD0161507109DC0116967F
:102190004D915C91DA01AE1BBF0BFD01E21BF30B0D
:1021A00077FDE8CFAF010E94800FE4CF16964D91E6
:1021B0005C91DA01A61BB70BBD0161507109CDCF4F
:1021C0000F931F93FA01DC0156964C9156974230BB
:1021D000A9F0433091F1413019F514964D915C917D
:1021E000DA01AE1BBF0BFD013197F7FD04C0AB0157
:1021F000BF010E94800F1F910F91089514964D9179
:102200005C91DA01A61BB70BBD01DC0116964D915E
:102210005C91DA01AE1BBF0BFD013197621B730BA2
:10222000F7FDE9CFDC0116964D915C91E417F507B7
:1022300014F7AF010E942F10DECF16964D915C91DE
:10224000DA01A61BB70BBD01621B730BCECFFC01DD
:1022500077FD64C080859185681779070CF05EC0B2
:1022600057FD5CC082859385481759070CF056C00E
:1022700086898230B1F0833029F1813041F4848144
:102280009581841B950BAB01BC0161507109213014
:10229000310509F108F443C02230310509F463C067
:1022A000089584819581DC01A61BB70BBD016150A7
:1022B000710986819781DC01A41BB50BAD014150EA
:1022C0005109E5CF86819781861B970BBA01AC0136
:1022D00041505109DCCFCA0157FD0796A3E09595FF
:1022E0008795AA95E1F7A481B5818A9F90018B9F7C
:1022F000300D9A9F300D1124620F731F078CF0A1CF
:10230000E02DE60FF71F4770552721E030E001C0B0
:10231000220F4A95EAF78081822B80830895CA01B3
:1023200057FD079633E0959587953A95E1F7A48197
:10233000B5818A9F90018B9F300D9A9F300D11249B
:10234000620F731F078CF0A1E02DE60FF71F477097
:10235000552781E090E001C0880F4A95EAF7809503
:1023600090818923DACFCA0157FD079623E095951E
:1023700087952A95E1F7A481B5818A9F90018B9F6B
:10238000300D9A9F300D1124620F731F078CF0A13E
:10239000E02DE60FF71F4770552721E030E001C020
:1023A000220F4A95EAF780818227B7CF08958EBD24
:1023B00000000DB407FEFDCF8EB50895EF92FF9299
:1023C0000F931F93CF93DF937C01C62F80914B0413
:1023D00090914C04009709F459C020914F0431E0CA
:1023E0003093FF032093FE031092FD031092FC0331
:1023F000DC01ED91FC910190F081E02D60E0099508
:102400008701EE24E394F12CD1E0C15080914B047C
:1024100090914C04CF3F91F1B0E2EB16F104D8F06B
:102420000E94D50780914B0490914C0420914F0459
:10243000D093FF032093FE031092FD031092FC0340
:10244000DC01ED91FC910190F081E02D60E00995B7
:10245000EE24E394F12C80914B0490914C04F8010C
:102460006491DC01ED91FC910190F081E02D0995E2
:10247000BFEFEB1AFB0A0F5F1F4FC7CFDF91CF9162
:102480001F910F91FF90EF900C94D507E0915B04A2
:10249000F0915C0490818091610480958923808310
:1024A0008701C15008F438C0F80184912091490493
:1024B00030914A04232B29F00E94D7110F5F1F4F40
:1024C000F0CF28E030E040E8E0915704F091580464
:1024D00090915F04582F5423D9F05081952B90830D
:1024E000E0915904F0915A04908150916004952B29
:1024F0009083E0915904F0915A04508190916004C6
:10250000909595239083469521503109E9F6D6CFD1
:10251000508190959523E3CFDF91CF911F910F913B
:10252000FF90EF9008951F93CF93DF93EC018D8D73
:102530009E8D009721F1162F29A131E03093FF03E2
:102540002093FE031092FD031092FC03DC01ED9139
:10255000FC910190F081E02D60E009958D8D9E8DBC
:10256000DC01ED91FC910190F081E02D612F099546
:102570008D8D9E8DDF91CF911F910C94D507ADA5C8
:10258000BEA59C918BA9809589238C938B8D9C8D66
:10259000892B31F0862FDF91CF911F910C94D711A9
:1025A00028E030E080E8A9A5BAA599A9462F4823DC
:1025B000C1F04C91942B9C93ABA5BCA59C914AA9CE
:1025C000942B9C93ABA5BCA54C919AA99095942370
:1025D0009C9386952150310931F7DF91CF911F915E
:1025E00008954C9190959423E6CF8CBD9DBD0895A0
:1025F000DF92EF92FF920F931F93CF93DF9380911F
:102600004B0490914C04892B09F498C020916304E9
:1026100030916404409165045091660460E074E276
:1026200084EF90E00E949520205131094109510921
:1026300056954795379527952093B80065E084E82F
:102640009AE00E94DE116091320461508EE294E0C3
:102650000E9493122091340430913504C9010796E9
:1026600097FD079633E0959587953A95E1F7209188
:10267000320430913304829F8001839F100D929F1A
:10268000100D1124C0914D04D0914E0480914B0443
:1026900090914C040C0F1D1F009709F48FC02091DE
:1026A0004F0431E03093FF032093FE031092FD03AB
:1026B0001092FC03DC01ED91FC910190F081E02D82
:1026C00060E40995EE24E394F12CDD24D394809109
:1026D0004B0490914C040C171D0709F446C0B0E25E
:1026E000EB16F104D8F00E94D50780914B0490912D
:1026F0004C0420914F04D092FF032093FE031092CC
:10270000FD031092FC03DC01ED91FC910190F0813E
:10271000E02D60E40995EE24E394F12C80914B04C4
:1027200090914C046991DC01ED91FC910190F08154
:10273000E02D0995BFEFEB1AFB0AC9CF8091490440
:1027400090914A04892B31F080916C0490916D0432
:102750000E94F512E0915D04F0915E0490818091F9
:10276000620480958923808369CF0E94D507809178
:102770004B0490914C04892B09F461C020916704AB
:10278000309168044091690450916A0460E074E2F9
:1027900084EF90E00E9495202051310941095109B0
:1027A00056954795379527952093B800DF91CF919F
:1027B0001F910F91FF90EF90DF900895E0915B04DF
:1027C000F0915C04808190916104892B80830C17C7
:1027D0001D0769F289912091490430914A04232B05
:1027E00019F00E94D711F3CF28E030E040E8E091E3
:1027F0005704F091580490915F04582F5423D9F056
:102800005081952B9083E0915904F0915A04908166
:1028100050916004952B9083E0915904F0915A04F3
:102820005081909160049095952390834695215016
:102830003109E9F6CCCF508190959523E3CFE09113
:102840005D04F0915E04808190916204892B808305
:10285000ADCF1F93CF93DF93EC01162F8D8D9E8DFF
:10286000892BB1F12DA93EA94FA958AD60E074E2C2
:1028700084EF90E00E9495202051310941095109CF
:1028800056954795379527952093B80066EA11111C
:1028900067EACE010E9493128D8D9E8D892B41F1A6
:1028A00029AD3AAD4BAD5CAD60E074E284EF90E0F1
:1028B0000E949520205131094109510956954795AB
:1028C000379527952093B800DF91CF911F910895F8
:1028D0008B8D9C8D892B21F08EAD9FAD0E94F512C2
:1028E000EFA5F8A990818CA9809589238083CECF0C
:1028F000EFA5F8A980819CA9892B8083E5CF089555
:1029000090E080E008951F93CF93DF932EE0289FFF
:10291000E001299FD00D1124C45FDE4F11E06881D2
:102920002296812F0E94E8051F5F1830C1F7DF91C2
:10293000CF911F910895FC0101900020E9F7319794
:10294000AF01481B590BBC018EE294E00C94BD060C
:102950008F929F92AF92BF920F931F93CF93DF936B
:10296000CDB7DEB7A1970FB6F894DEBF0FBECDBFCF
:1029700019A2423008F44AE08E010F5D1F4F842EE9
:10298000912CB12CA12CA50194010E949520E62F39
:10299000B901CA01EA30F4F4E05DD801EE938D018B
:1029A000232B242B252B79F790E080E0109719F04A
:1029B000CD010E949B14A1960FB6F894DEBF0FBE06
:1029C000CDBFDF91CF911F910F91BF90AF909F909E
:1029D0008F900895E95CE1CFCF92DF92EF92FF9262
:1029E000CF93DF936B017C016DE28EE294E00E9455
:1029F000F70AEC0166277727CB016C197D098E0950
:102A00009F094AE00E94A8148C0F9D1FDF91CF916F
:102A1000FF90EF90DF90CF900895BC01990F880B45
:102A2000990B97FD0C94EC144AE00C94A814CF93E6
:102A3000DF93BC01990F880B990B97FF0CC00E9484
:102A4000EC14EC0186E792E00E949B148C0F9D1F12
:102A5000DF91CF9108954AE00E94A814F2CFCF935E
:102A6000DF930E949B14EC0186E792E00E949B1486
:102A70008C0F9D1FDF91CF910895209134043091E8
:102A80003504C901079697FD079623E0959587952C
:102A90002A95E1F72091320430913304829FA001FE
:102AA000839F500D929F500D112470E060E0809143
:102AB0004D0490914E040C9436232F923F924F92E6
:102AC0005F926F927F928F929F92AF92BF92CF92BE
:102AD000DF92EF92FF920F931F93CF93DF93CDB7C7
:102AE000DEB760970FB6F894DEBF0FBECDBF0E9471
:102AF0003D1580913303811134C110923B04109233
:102B00003A0410923D0410923C0488248394912C42
:102B100090923F0480923E0410924104109240042F
:102B200089E792E00E942F15809131039091320342
:102B3000892B09F077C010923F0410923E049092C6
:102B400041048092400485E892E00E942F15909203
:102B50003F0480923E0410924104109240048FE89A
:102B600092E00E942F150E94F8128CE00E94BF058F
:102B7000892B89F48091310390913203181619063C
:102B80002CF4019790933203809331038CE00E94E0
:102B9000BF05892BD9F38BE00E94BF05892B89F4EF
:102BA0008091310390913203181619062CF001968A
:102BB00090933203809331038BE00E94BF05892BF1
:102BC000D9F38AE00E94BF05892B99F480903103E4
:102BD000909032039A82898281149104D9F19401F0
:102BE0002130310509F490C08AE00E94BF05892B8D
:102BF000D9F360960FB6F894DEBF0FBECDBFDF915C
:102C0000CF911F910F91FF90EF90DF90CF90BF90E9
:102C1000AF909F908F907F906F905F904F903F907C
:102C20002F900895AA24A394B12CB0923F04A092AF
:102C30003E04109241041092400485E892E00E9404
:102C40002F1510923F0410923E04B0924104A092BE
:102C5000400485CF8091000190910101181619065A
:102C600094F581E08093330380913604909137048A
:102C700097FD0196959587959093EE038093ED03CC
:102C8000809138049091390497FD01969595879528
:102C90009093EC038093EB0381E090E09093050127
:102CA000809304018FEF9FEF9093030180930201C3
:102CB00090E080E00E9483148091F1039091F203F0
:102CC0000E94710591CF0E943D1510923B04109215
:102CD0003A0410923D0410923C0481E090E09093FD
:102CE0003F0480933E04109241041092400488E90E
:102CF00092E00E942F150E94F81260ED77E080E0CC
:102D000090E00E94890670CF0E943D1510923B040E
:102D100010923A0410923D0410923C0489809A80EB
:102D200090923F0480923E0410924104109240041D
:102D30008DEA92E00E942F150E94F81260ED77E074
:102D400080E090E00E9489061092330310923003D5
:102D500010922F0390E080E00E9483140E945D1582
:102D600043CF80E10E9452061C01A0903604B0902F
:102D700037049501245131093A8329838EE00E945A
:102D8000520629813A81DC010E94F7212FEF33E0BE
:102D900040E050E00E947620B9013093F003209388
:102DA000EF03409138045091390445505109EE2405
:102DB000E394F12C05E010E024E130E08EE294E0B1
:102DC0000E94BD0C6091EB037091EC0342E050E077
:102DD0008091ED039091EE030E949C0DB0E0CB2E0C
:102DE000B4E0DB2E4601B12CA12C1A821982E981B4
:102DF000FA81E80DF91D80818823D1F080912004AB
:102E0000909121049C012150310949815A81849F6C
:102E1000B001859F700D949F700D1124EE24E394F2
:102E2000F12C05E010E0A5018EE294E00E94BD0CBB
:102E300069817A816F5F7F4F7A836983683071051A
:102E4000B1F678E0870E911C86E0A80EB11C98E1DF
:102E5000A916B10451F660910401709105018091A9
:102E6000ED039091EE03860F971F9093EE038093EE
:102E7000ED0340910201509103012091EB03309149
:102E8000EC03240F351F3093EC032093EB0318164B
:102E900019063CF4E0913604F09137048E179F0731
:102EA0003CF071956195710970930501609304017F
:102EB000121613063CF051954195510950930301A8
:102EC0004093020140913804509139044A5051090D
:102ED00024173507BCF02091EF033091F0038217DF
:102EE000930784F02C5E3F4F281739075CF08091E0
:102EF00002019091030191958195910990930301AD
:102F00008093020120E234E000E014E0B12CA12C17
:102F100090E080E0F801E80FF91F4081442319F0A8
:102F2000AFEFAA1ABA0A01968830910599F7085F9F
:102F30001F4F2017310761F770E0672E74E0772E7E
:102F4000E6E0EE2EF12C2501B4E14B1A5108950173
:102F50002E5131093E832D83470136E0831A9108B3
:102F600018861F824F8158854F5F5F4F5A83498370
:102F7000EF81F885E60DF71D8081882309F4FFC0F5
:102F800080912004909121046F817885869F900123
:102F9000879F300D969F300D11244091ED03509185
:102FA000EE03241735070CF0EAC0820F931F481771
:102FB00059070CF0E4C08091EB039091EC03881664
:102FC00099060CF0DCC08E159F050CF0D8C010825D
:102FD00080910201909103019195819591099093BF
:102FE00003018093020180912F0390913003019699
:102FF0009093300380932F0320912D0330912E0363
:103000002F5F3F4F30932E0320932D030A9724F018
:103010001092300310922F0380913804909139045C
:103020000A9710923B0410923A0490933D048093C7
:103030003C0481E090E090933F0480933E04109222
:103040004104109240048BED92E00E949B14809109
:103050002D0390912E030E9417150E94F812809163
:103060002F03909130030E94831480912B03909141
:103070002C03019690932C0380932B03A4E1AA16B2
:10308000B10424F50B9714F110922C0310922B032A
:10309000B1E0B0932A0380912004909121044F81E4
:1030A0005885849F9001859F300D949F300D112489
:1030B00097FD019695958795820F931F909329030D
:1030C0008093280390922703809226035AE04516A6
:1030D000510440F580912B0390912C030E9714F12D
:1030E00010922C0310922B0361E060932A038091CD
:1030F000200490912104AF81B8858A9F90018B9F15
:10310000300D9A9F300D112497FD01969595879566
:10311000820F931F90932903809328039092270393
:10312000809226032D813E812A30310540F5809121
:103130002B0390912C030D9714F110922C031092F5
:103140002B0331E030932A038091200490912104D5
:103150004F815885849F9001859F300D949F300D3D
:10316000112497FD019695958795820F931F909353
:103170002903809328039092270380922603698174
:103180007A8178876F836830710509F0EBCE78E03B
:10319000670E711C86E0E80EF11C9EE1E916F10451
:1031A00009F0DACE2091EB033091EC0380913804E2
:1031B00090913904821793070CF078C08090000139
:1031C000909001019A828982940160E08DE0233021
:1031D000310571F049815A8160E089E04230510542
:1031E00039F069817A816130710521F460E088E00D
:1031F0000E94E80589819A8101979093010180934B
:103200000001892B09F0A2C10E943D1510923B04D8
:1032100010923A0410923D0410923C0481E090E038
:1032200090933F0480933E04109241041092400416
:1032300081EE92E00E942F158BED92E00E949B148C
:1032400080912D0390912E030E940D1583E090E054
:1032500090930101809300010E94F81260ED77E0E5
:1032600080E090E00E9489061092330310923003B0
:1032700010922F0390E080E00E9483141092F203DA
:103280001092F10310922E0310922D0390E080E033
:103290000E94710561E088E00E94E80561E089E034
:1032A0000E94E80561E08DE00E94E80590E080E082
:1032B000F601E80FF91F2081211198C0019688308E
:1032C0009105B1F728E0C20ED11CC016D10671F7E6
:1032D0000E943D1510923B0410923A0410923D0456
:1032E00010923C0481E090E090933F0480933E0470
:1032F00010924104109240048BED92E00E949B14C6
:1033000080912D0390912E030E9417158091F10357
:103310009091F20301960E940D1587EF92E00E94B2
:103320002F150E94F81268EE73E080E090E00E9492
:1033300089064091F1035091F2034F5F5F4F5A832A
:1033400049835093F2034093F10360ED77E080E00E
:1033500090E00E948906809136049091370497FD91
:103360000196959587959093EE038093ED03809158
:1033700038049091390497FD01969595879590931F
:10338000EC038093EB036091040170910501072E1B
:10339000000C880B990B0E94FE202AE939E949E9C3
:1033A0005FE30E9462210E94C62070930501609332
:1033B00004016091020170910301072E000C880B3B
:1033C000990B0E94FE202AE939E949E95FE30E944E
:1033D00062210E94C62070930301609302018981DB
:1033E0009A810E94710581E08093330361E091E04E
:1033F000291692E039060CF460E08EE294E00E9417
:10340000291480912A03882309F41BC18090260384
:10341000909027039A82898274012FEFE21AF20AB0
:10342000F0922703E09226030091280310912903CC
:1034300043E050E0B701C8010E949C0D43E050E01A
:10344000B701C80106960E949C0D98012D5F3F4F61
:10345000180149E0240E311C680153E0C51AD10857
:10346000C40108968E199F09A901421953094A01FE
:10347000550FAA08BB088F829886A986BA862C1990
:103480003D094901330FAA08BB088B869C86AD868F
:10349000BE8629813A81275F3F4F3E832D83412C91
:1034A000512C3201812C912C5401AC01990F660BE7
:1034B000770B49835A836B837C836D817E816E1584
:1034C0007F0509F47FC0C501B40129813A814B8190
:1034D0005C810E947620C101820F931F988B8F8799
:1034E000C301B20129813A814B815C810E9476201F
:1034F000B601620F731F2F81388549855A85820E68
:10350000931EA41EB51E8B859C85AD85BE85480E79
:10351000591E6A1E7B1EAF85B8896A177B072CF07F
:10352000962F872FBD019F87888B2F853889261B73
:10353000370B2F5F3F4F01E010E0A7018EE294E0D0
:103540000E94840DBFEFEB1AFB0AB7CF0E943D1516
:1035500010923B0410923A0410923D0410923C04E5
:1035600081E090E090933F0480933E0410924104E8
:103570001092400487EE92E00E942F150E94F812EC
:1035800068EE73E080E090E00E94890681E080931D
:1035900033038091EF039091F0030A969093EE032A
:1035A0008093ED0380913804909139040F979093A4
:1035B000EC038093EB0360ED77E080E090E00E9405
:1035C000890674CE20913804309139044091260345
:1035D0005091270324173507A4F0C9010A9748170B
:1035E00059077CF160912803709129038091EF03C2
:1035F0009091F0036817790724F14496861797078E
:1036000004F110922A0324173507DCF080910001A1
:103610009091010183309105A4F4019690930101EA
:10362000809300018330910561F561E088E00E949C
:10363000E80561E089E00E94E80561E08DE00E9414
:10364000E8050E94F8126AE070E080E090E0609681
:103650000FB6F894DEBF0FBECDBFDF91CF911F91A3
:103660000F91FF90EF90DF90CF90BF90AF909F9021
:103670008F907F906F905F904F903F902F900C9421
:1036800089060297F1F661E089E0D9CF0E943123E3
:1036900085ED8093BC008091750390917603A09195
:1036A0007703B09178030796A11DB11D23E0B6956D
:1036B000A795979587952A95D1F72091BC0024FD71
:1036C00003C01092BE030895409175035091760394
:1036D0006091770370917803452B462B472B69F354
:1036E0000097A105B10541F02AE22A95F1F700C043
:1036F0000197A109B109E1CF809174030C942F07C0
:103700001F920F920FB60F9211242F933F938F9316
:103710009F93AF93BF938091F4039091F503A09191
:10372000F603B091F7033091F30323E0230F2D3715
:1037300058F50196A11DB11D2093F3038093F40366
:103740009093F503A093F603B093F7038091F803E9
:103750009091F903A091FA03B091FB030196A11D8A
:10376000B11D8093F8039093F903A093FA03B093EB
:10377000FB03BF91AF919F918F913F912F910F903C
:103780000FBE0F901F90189526E8230F0296A11DDB
:10379000B11DD2CF1F920F920FB60F9211242F930B
:1037A0003F934F935F936F937F938F939F93AF93C9
:1037B000BF93EF93FF938091B900887F803609F41F
:1037C0004AC0F0F5883209F4A7C018F5803109F431
:1037D0009BC0B8F4882309F4F9C0883009F494C078
:1037E000FF91EF91BF91AF919F918F917F916F91D9
:1037F0005F914F913F912F910F900FBE0F901F90AF
:103800001895883109F488C0803251F78093BD0340
:1038100014C0803409F49DC040F48033B9F3883378
:10382000F9F68093BD0385ECB0C0803509F485C0FE
:10383000883509F496C0883499F60E94481BD0CF89
:10384000883909F48CC038F5883729F050F4883667
:1038500011F0803729F683E08093BE031092BC03F9
:1038600057C0883809F47BC0803919F0803809F0D6
:10387000B7CF8091BC03803208F071C0E091BC03E7
:1038800081E08E0F8093BC038091BB00F0E0E45692
:10389000FC4F80833DC0803B39F0E0F4803A09F46E
:1038A00079C0883A09F09CCF84E08093BE031092DF
:1038B0009B0310929A03E091E703F091E8030995C6
:1038C00080919A0381110FC081E080939A03109236
:1038D0007A0309C0803C09F4A6CF883C09F4A3CF41
:1038E000883B09F07DCFE0919B0381E08E0F8093B0
:1038F0009B03F0E0E658FC4F80818093BB009091E1
:103900009B0380919A0329C08091E3038093BB00BD
:1039100085EC8093BC0064CF9091E2038091E10339
:10392000981758F5E091E20381E08E0F8093E2034F
:10393000F0E0EF53FC4F8081E9CFE091E20381E0BA
:103940008E0F8093E2038091BB00F0E0EF53FC4FB9
:1039500080839091E2038091E1039817C8F285E893
:10396000D8CFE091E20381E08E0F8093E203809153
:10397000BB00F0E0EF53FC4F80838091C0038111C6
:103980005CCF81E08093BF0384EA8093BC001092F7
:10399000BE0326CF85EC8093BC001092BE038091BD
:1039A000BC03803230F4E091BC03F0E0E456FC4FFD
:1039B00010826091BC0370E0E091E503F091E603B2
:1039C0008CE993E009951092BC030ACF1092BD03D5
:1039D00034CFA2E2B4E013961C921E92129748EEE6
:1039E00053E060E070E014964D935D936D937C938B
:1039F00017978CE392E011969C938E93EEE2F4E09D
:103A00001382128220E830E03583248380E490E042
:103A1000978386833187208793878287168A1586C6
:103A200014861786168681E0858B848B2FEF3FEFF7
:103A3000338B228B318B208B878B108E128E118EC5
:103A40008EE492E091838083148E138EB68FA58FBF
:103A500010A2178E8FEF84A385A386A387A310A639
:103A600080E89AE1A6E0B0E085AB96ABA7ABB0AF3B
:103A700080EA96E8A1E0B0E081AF92AFA3AFB4AF27
:103A800080E586AF17AE80E190E0909321048093AB
:103A900020040895789484B5826084BD84B58160E3
:103AA00084BD85B5826085BD85B5816085BD809109
:103AB0006E00816080936E00109281008091810081
:103AC0008260809381008091810081608093810079
:103AD000809180008160809380008091B10084603B
:103AE0008093B1008091B00081608093B00080919C
:103AF0007A00846080937A0080917A00826080935B
:103B00007A0080917A00816080937A0080917A00B7
:103B1000806880937A001092C10080914D0490914A
:103B20004E04892B11F10E943D15209134043091EF
:103B300035048091320490913304213231050CF028
:103B4000D0C0B9016052710977FF02C06F5F7F4F2B
:103B5000759567958357910997FD019600E210E0EE
:103B600023E730E04AE855E0CFC02091340430919B
:103B70003504C901079697FD0796B3E0959587959B
:103B8000BA95E1F72091320430913304AC01429FA1
:103B9000C001439F900D529F900D11240E940C2252
:103BA00090934E0480934D04892B09F0BCCF0E9462
:103BB0003D1581E0809342048093430481E090E0CE
:103BC000909341048093400490933F0480933E047B
:103BD00010923B0410923A0410923D0410923C045F
:103BE0008CE093E00E942F1585E193E00E942F1551
:103BF00061E088E00E94160661E089E00E941606F6
:103C000061E08DE00E94160662E08CE00E941606DC
:103C100062E08BE00E94160662E08AE00E941606CF
:103C20000E94F81268EE73E080E090E00E9489063E
:103C300060E080E10E9416068091F1039091F2030A
:103C40000E9471050E94F81261E081E00E94160650
:103C500061E082E00E94160661E083E00E941606A1
:103C600061E084E00E94160661E085E00E9416068D
:103C700061E086E00E94160661E087E00E94160679
:103C8000809136049091370497FD0196959587951C
:103C90009093F0038093EF039093EE038093ED03F2
:103CA000809138049091390497FD019695958795F8
:103CB0009093EC038093EB0361E088E00E94E805B9
:103CC00061E089E00E94E80561E08DE00E94E8057E
:103CD000C0E0D0E00E945D152097E1F30E94000053
:103CE000F9CFB9016054710977FF02C06F5F7F4F50
:103CF000759567958255910997FD019600E410E04E
:103D000022E530E04AE657E0959587950E94720ECD
:103D100082E08093500480914B0490914C04892B55
:103D200009F4DFC08DE380934F041092EA031092F0
:103D3000E9031092FD031092FC030E9411078BEB24
:103D400096E09093E8038093E7038CEB96E09093E2
:103D5000E6038093E5038091560487FD1EC061E071
:103D60000E94160661E0809156040E94E80561E019
:103D700070E080E090E00E94890660E08091560447
:103D80000E94E8056AE070E080E090E00E94890609
:103D900061E0809156040E94E80580914B04909167
:103DA0004C04892B09F45CC12091630430916404B4
:103DB000409165045091660460E074E284EF90E005
:103DC0000E94952020513109410951095695479586
:103DD000379527952093B80064E086E895E00E9427
:103DE000DE116091340461508EE294E00E949312DF
:103DF00064E082E895E00E94DE118091500464E165
:103E0000813009F460E18EE294E00E94931264E054
:103E10008EE795E00E94DE118FE880936B0480911D
:103E20003204909133048038910509F032C18091B9
:103E30003404909135048034910509F03AC18091A1
:103E40005004813009F423C18FEC80936B04C2E1EC
:103E50006AED8EE294E00E9493126C2F8EE294E061
:103E60000E94931261E88EE294E00E9493126091A6
:103E70006B048EE294E00E94931269ED8EE294E06E
:103E80000E9493128091500461EF813009F462E244
:103E90008EE294E00E94931266E088E795E00E942B
:103EA000DE1180914B0490914C04892B09F405C1DB
:103EB00020916704309168044091690450916A042C
:103EC00060E074E284EF90E00E9495202051310977
:103ED0004109510956954795379527952093B80084
:103EE00066CE61E0809154040E94160661E08091E4
:103EF00055040E94160680915404082E000C990B5C
:103F0000FC01E85BF54FE491F0E0EE0FFF1FEC5C85
:103F1000F54F2591349130935C0420935B04FC01B0
:103F2000E45AF54FE491E093610480915504082E22
:103F3000000C990BFC01E85BF54FE491F0E0EE0F0B
:103F4000FF1FEC5CF54FA591B491B0935E04A09374
:103F50005D04FC01E45AF54FE491E09362048C9116
:103F6000E82BEC938091490490914A04892B09F441
:103F700034C0CFB7F8948091E403811127C0E2E503
:103F8000FAE08491E6E6FAE09491E82FF0E0EE0F93
:103F9000FF1FE65DF54FA591B491EC91E92321F463
:103FA00061E08AE00E94E80561E08AE00E9416066E
:103FB0008CB580618CBD8CB580648CBD61E08DE07A
:103FC0000E94160661E08BE00E9416068091E403D1
:103FD0008F5F8093E403CFBFBECE61E08091520437
:103FE0000E94160661E0809153040E94160680919B
:103FF0005204082E000C990BFC01E85BF54FE4918C
:10400000F0E0EE0FFF1FEC5CF54F259134913093FB
:10401000580420935704FC01E45AF54FE491E093CF
:104020005F0480915304082E000C990BFC01E85B9F
:10403000F54FE491F0E0EE0FFF1FEC5CF54FA5911A
:10404000B491B0935A04A0935904FC01E45AF54F7B
:10405000E491E09360048C91E095E823EC937BCEAF
:104060008091490490914A04892B31F080916C042D
:1040700090916D040E94F512E0915D04F0915E0450
:10408000908180916204809589238083A5CE8FE9F9
:10409000DCCE8036910569F480913404909135042A
:1040A000409739F480915004813029F08FEA809351
:1040B0006B04C2E0CDCE80E1FACFE0915D04F091D7
:1040C0005E04808190916204892B808370CD8EE4A0
:1040D00092E090932F0480932E0480914D04909150
:1040E0004E04009711F00C94A8220895052E97FB1A
:1040F0001EF400940E948D2057FD07D00E94952049
:1041000007FC03D04EF40C948D20509540953095CB
:1041100021953F4F4F4F5F4F089590958095709533
:1041200061957F4F8F4F9F4F0895A1E21A2EAA1BD2
:10413000BB1BFD010DC0AA1FBB1FEE1FFF1FA21757
:10414000B307E407F50720F0A21BB30BE40BF50B54
:10415000661F771F881F991F1A9469F760957095DD
:10416000809590959B01AC01BD01CF010895A29F60
:10417000B001B39FC001A39F700D811D1124911D3B
:10418000B29F700D811D1124911D08950E94CD20B4
:104190006894B1110C945C2108950E94412188F02B
:1041A0009F5798F0B92F9927B751B0F0E1F0660FFB
:1041B000771F881F991F1AF0BA95C9F714C0B1303C
:1041C00091F00E945B21B1E008950C945B21672F70
:1041D000782F8827B85F39F0B93FCCF3869577956B
:1041E0006795B395D9F73EF4909580957095619554
:1041F0007F4F8F4F9F4F0895E89409C097FB3EF47F
:1042000090958095709561957F4F8F4F9F4F992323
:10421000A9F0F92F96E9BB279395F69587957795A1
:104220006795B795F111F8CFFAF4BB0F11F460FF61
:104230001BC06F5F7F4F8F4F9F4F16C0882311F0B9
:1042400096E911C0772321F09EE8872F762F05C0CD
:10425000662371F096E8862F70E060E02AF09A9568
:10426000660F771F881FDAF7880F9695879597F95D
:10427000089557FD9058440F551F59F05F3F71F056
:104280004795880F97FB991F61F09F3F79F08795BD
:104290000895121613061406551FF2CF4695F1DF46
:1042A00008C0161617061806991FF1CF86957105D6
:1042B000610508940895E894BB2766277727CB010A
:1042C00097F908950E9475210C94E6210E94D82147
:1042D00038F00E94DF2120F0952311F00C94CF21BB
:1042E0000C94D52111240C945C210E94392170F387
:1042F000959FC1F3950F50E0551F629FF001729F8B
:10430000BB27F00DB11D639FAA27F00DB11DAA1F99
:10431000649F6627B00DA11D661F829F2227B00DE6
:10432000A11D621F739FB00DA11D621F839FA00D71
:10433000611D221F749F3327A00D611D231F849FC1
:10434000600D211D822F762F6A2F11249F57504018
:104350009AF0F1F088234AF0EE0FFF1FBB1F661F93
:10436000771F881F91505040A9F79E3F510580F05C
:104370000C94CF210C945C215F3FE4F3983ED4F37E
:10438000869577956795B795F795E7959F5FC1F700
:10439000FE2B880F911D9695879597F9089597F9AB
:1043A0009F6780E870E060E008959FEF80EC0895DB
:1043B00000240A9416161706180609060895002404
:1043C0000A9412161306140605060895092E03947E
:1043D000000C11F4882352F0BB0F40F4BF2B11F4F2
:1043E00060FF04C06F5F7F4F8F4F9F4F08950E9403
:1043F000B720332312F48A1B9B0B0C9401220E94DA
:10440000B720B7FF0895821B930B0895EE0FFF1F8F
:104410000590F491E02D09940F931F93CF93DF93B0
:104420008230910510F482E090E0E0917004F09108
:10443000710430E020E0B0E0A0E0309799F421155D
:10444000310509F44AC0281B390B24303105D8F551
:104450008A819B816115710589F1FB0193838283B8
:10446000FE0111C040815181028113814817590713
:10447000E0F04817590799F4109761F012960C93E1
:10448000129713961C933296CF01DF91CF911F9113
:104490000F9108950093700410937104F4CF2115C7
:1044A000310551F04217530738F0A901DB019A0199
:1044B000BD01DF01F801C1CFEF01F9CF9093710485
:1044C00080937004CDCFFE01E20FF31F819391938F
:1044D0002250310939832883D7CF20916E0430913F
:1044E0006F04232B41F4209108013091090130938E
:1044F0006F0420936E04209106013091070121156D
:10450000310541F42DB73EB740910A0150910B019E
:10451000241B350BE0916E04F0916F04E217F30752
:10452000A0F42E1B3F0B2817390778F0AC014E5F23
:104530005F4F2417350748F04E0F5F1F50936F04ED
:1045400040936E04819391939FCFF0E0E0E09CCF85
:10455000CF93DF930097E9F0FC0132971382128228
:10456000A0917004B0917104ED0130E020E010974B
:10457000A1F420813181820F931F20916E0430912C
:104580006F042817390709F061C0F0936F04E093B6
:104590006E04DF91CF910895EA01CE17DF07E8F5A9
:1045A0004A815B819E0141155105B1F7E901FB8309
:1045B000EA8349915991C40FD51FEC17FD0761F4A7
:1045C000808191810296840F951FE90199838883E8
:1045D000828193819B838A83F0E0E0E012968D9143
:1045E0009C9113970097B9F52D913C911197CD01AE
:1045F0000296820F931F20916E0430916F0428174A
:10460000390739F6309751F5109271041092700401
:10461000B0936F04A0936E04BCCFD383C283408158
:104620005181840F951FC817D90761F44E5F5F4F02
:1046300088819981480F591F518340838A819B81CA
:10464000938382832115310509F0B0CFF093710473
:10465000E09370049ECFFD01DC01C0CF1382128273
:10466000D7CF81E090E0F8940C943D23DC0101C0A9
:104670006D9341505040E0F7089515E0C6E4D5E051
:1046800004C0FE010E9406222196C734D107C9F753
:04469000F894FFCFCC
:104694000300FFFF0100000072048000010001001C
:1046A4000100010001000100000000000100010000
:1046B40000000000000000000100010000000100F3
:1046C40001000000010001000100010001000000E0
:1046D40000000100000001000100000000000100D2
:1046E40001000100000001000100000001000100C0
:1046F40001000000010001000100010001000100AF
:1047040001000100000000000000000001000100A1
:10471400010001000100010001000100010001008D
:10472400010000000100010001010101010101017A
:104734000101010101010101010101010101010165
:104744000101010101010101010101010101010155
:104754000101010101010101010101000000010148
:10476400010100000000000101010101010101013A
:10477400010101000001010101010100000001012A
:10478400000000000000000001010001010001011F
:10479400010100010100010100000100000100000D
:1047A4000001000000000101000000010100000000
:1047B40000010100010101000101000000000100ED
:1047C400010000000000000100000000A6077907B6
:1047D4008014950572075F07500700000000F70A70
:1047E400BD0680147F14271195056B0E740D900D72
:1047F400840DD30E9505BD0829149710E010BD0C47
:10480400A00C280CC90B0D0A004F79756E204D655C
:104814006E75737500312E204261736C61740032C1
:104824002E2043696B69730043616E20736179695B
:10483400736920796574657273697A21004F79759B
:104844006E756D757A610A676F73746572646967F2
:10485400696E697A20696C67690A6963696E207494
:104864006573656B6B75726C657200536B6F723A2E
:104874000042697474690043616E206B61796265FA
:104884007474696E697A002E20536576697965209F
:1048940054616D616D6C616E646921004D6572686F
:1048A40061626121004979692065676C656E6365A1
:0648B4006C65723A290058
:00000001FF
